{
  "contractName": "Pagos",
  "abi": [
    {
      "inputs": [],
      "payable": false,
      "stateMutability": "nonpayable",
      "type": "constructor"
    },
    {
      "anonymous": false,
      "inputs": [
        {
          "indexed": true,
          "internalType": "uint256",
          "name": "_candidateId",
          "type": "uint256"
        }
      ],
      "name": "votedEvent",
      "type": "event"
    },
    {
      "constant": true,
      "inputs": [],
      "name": "contServicio",
      "outputs": [
        {
          "internalType": "uint256",
          "name": "",
          "type": "uint256"
        }
      ],
      "payable": false,
      "stateMutability": "view",
      "type": "function"
    },
    {
      "constant": true,
      "inputs": [],
      "name": "disponible",
      "outputs": [
        {
          "internalType": "uint256",
          "name": "",
          "type": "uint256"
        }
      ],
      "payable": false,
      "stateMutability": "view",
      "type": "function"
    },
    {
      "constant": true,
      "inputs": [
        {
          "internalType": "uint256",
          "name": "",
          "type": "uint256"
        }
      ],
      "name": "servicios",
      "outputs": [
        {
          "internalType": "uint256",
          "name": "id",
          "type": "uint256"
        },
        {
          "internalType": "string",
          "name": "name",
          "type": "string"
        },
        {
          "internalType": "uint256",
          "name": "saldo",
          "type": "uint256"
        }
      ],
      "payable": false,
      "stateMutability": "view",
      "type": "function"
    },
    {
      "constant": true,
      "inputs": [
        {
          "internalType": "address",
          "name": "",
          "type": "address"
        }
      ],
      "name": "usuarios",
      "outputs": [
        {
          "internalType": "bool",
          "name": "",
          "type": "bool"
        }
      ],
      "payable": false,
      "stateMutability": "view",
      "type": "function"
    },
    {
      "constant": false,
      "inputs": [
        {
          "internalType": "uint256",
          "name": "_candidateId",
          "type": "uint256"
        },
        {
          "internalType": "uint256",
          "name": "pago",
          "type": "uint256"
        }
      ],
      "name": "pagar",
      "outputs": [],
      "payable": false,
      "stateMutability": "nonpayable",
      "type": "function"
    }
  ],
  "bytecode": "0x608060405234801561001057600080fd5b506127106003819055506100616040518060400160405280600981526020017f41637565647563746f00000000000000000000000000000000000000000000008152506127106100ad60201b60201c565b6100a86040518060400160405280600881526020017f416c676f206d6173000000000000000000000000000000000000000000000000815250614e206100ad60201b60201c565b6101ce565b6002600081548092919060010191905055506040518060600160405280600254815260200183815260200182815250600160006002548152602001908152602001600020600082015181600001556020820151816001019080519060200190610117929190610129565b50604082015181600201559050505050565b828054600181600116156101000203166002900490600052602060002090601f016020900481019282601f1061016a57805160ff1916838001178555610198565b82800160010185558215610198579182015b8281111561019757825182559160200191906001019061017c565b5b5090506101a591906101a9565b5090565b6101cb91905b808211156101c75760008160009055506001016101af565b5090565b90565b6103ac806101dd6000396000f3fe608060405234801561001057600080fd5b50600436106100575760003560e01c8063126e4f3d1461005c578063336127b4146100945780637a53a15314610149578063c3a942e614610167578063f6b91ea914610185575b600080fd5b6100926004803603604081101561007257600080fd5b8101908080359060200190929190803590602001909291905050506101e1565b005b6100c0600480360360208110156100aa57600080fd5b8101908080359060200190929190505050610289565b6040518084815260200180602001838152602001828103825284818151815260200191508051906020019080838360005b8381101561010c5780820151818401526020810190506100f1565b50505050905090810190601f1680156101395780820380516001836020036101000a031916815260200191505b5094505050505060405180910390f35b61015161034b565b6040518082815260200191505060405180910390f35b61016f610351565b6040518082815260200191505060405180910390f35b6101c76004803603602081101561019b57600080fd5b81019080803573ffffffffffffffffffffffffffffffffffffffff169060200190929190505050610357565b604051808215151515815260200191505060405180910390f35b6000803373ffffffffffffffffffffffffffffffffffffffff1673ffffffffffffffffffffffffffffffffffffffff16815260200190815260200160002060009054906101000a900460ff161561023757600080fd5b60008211801561024957506002548211155b61025257600080fd5b8060016000848152602001908152602001600020600201540360016000848152602001908152602001600020600201819055505050565b6001602052806000526040600020600091509050806000015490806001018054600181600116156101000203166002900480601f01602080910402602001604051908101604052809291908181526020018280546001816001161561010002031660029004801561033b5780601f106103105761010080835404028352916020019161033b565b820191906000526020600020905b81548152906001019060200180831161031e57829003601f168201915b5050505050908060020154905083565b60025481565b60035481565b60006020528060005260406000206000915054906101000a900460ff168156fea265627a7a723158204e14732f47b7c59581020ac5f3feb6d09b5cef521be3ce76551b3a9db76ee78c64736f6c63430005100032",
  "source": "pragma solidity >=0.4.21 <0.7.0;\n\ncontract Pagos {\n    // Model a Candidate\n    struct Servicio {\n        uint id;\n        string name;\n        uint saldo;\n    }\n\n    // Guarda a los clientes que han pagado por los servicios\n    mapping(address => bool) public usuarios;\n    // Guarda a los servicios\n    // Añade el servicio\n    mapping(uint => Servicio) public servicios;\n    // Store Candidates Count\n    uint public contServicio;\n    uint public disponible;\n\n    // voted event\n    event votedEvent (\n        uint indexed _candidateId\n    );\n\n    constructor () public {\n        disponible = 10000;\n        agregarServicio(\"Acueducto\", 10000);\n        agregarServicio(\"Algo mas\", 20000);\n    }\n\n    function agregarServicio (string memory name, uint saldo) private {\n        contServicio ++;\n        servicios[contServicio] = Servicio(contServicio, name, saldo);\n    }\n\n    function pagar (uint _candidateId, uint pago) public {\n        // require that they haven't voted before\n        require(!usuarios[msg.sender]);\n\n        // require a valid candidate\n        require(_candidateId > 0 && _candidateId <= contServicio);\n\n        // record that voter has voted\n        //voters[msg.sender] = true;\n\n        // update candidate vote Count\n        servicios[_candidateId].saldo = servicios[_candidateId].saldo - pago;\n\n        // trigger voted event\n        //emit votedEvent(_candidateId);\n    }\n}",
  "sourcePath": "/home/nedsanchezca/Documents/Universidad/11 Semestre/ProyectoFinalRedes3/proyecto/contracts/Pagos.sol",
  "compiler": {
    "name": "solc",
    "version": "0.5.16+commit.9c3226ce.Emscripten.clang"
  },
  "schemaVersion": "3.2.3",
  "updatedAt": "2020-08-22T23:56:31.760Z",
  "networkType": "ethereum",
  "devdoc": {
    "methods": {}
  },
  "userdoc": {
    "methods": {}
  }
}