{
  "contractName": "Pagos",
  "abi": [
    {
      "inputs": [],
      "payable": false,
      "stateMutability": "nonpayable",
      "type": "constructor"
    },
    {
      "anonymous": false,
      "inputs": [
        {
          "indexed": true,
          "internalType": "uint256",
          "name": "_candidateId",
          "type": "uint256"
        }
      ],
      "name": "votedEvent",
      "type": "event"
    },
    {
      "constant": true,
      "inputs": [],
      "name": "contServicio",
      "outputs": [
        {
          "internalType": "uint256",
          "name": "",
          "type": "uint256"
        }
      ],
      "payable": false,
      "stateMutability": "view",
      "type": "function"
    },
    {
      "constant": true,
      "inputs": [],
      "name": "disponible",
      "outputs": [
        {
          "internalType": "uint256",
          "name": "",
          "type": "uint256"
        }
      ],
      "payable": false,
      "stateMutability": "view",
      "type": "function"
    },
    {
      "constant": true,
      "inputs": [
        {
          "internalType": "uint256",
          "name": "",
          "type": "uint256"
        }
      ],
      "name": "servicios",
      "outputs": [
        {
          "internalType": "uint256",
          "name": "id",
          "type": "uint256"
        },
        {
          "internalType": "string",
          "name": "name",
          "type": "string"
        },
        {
          "internalType": "uint256",
          "name": "saldo",
          "type": "uint256"
        }
      ],
      "payable": false,
      "stateMutability": "view",
      "type": "function"
    },
    {
      "constant": true,
      "inputs": [
        {
          "internalType": "address",
          "name": "",
          "type": "address"
        }
      ],
      "name": "usuarios",
      "outputs": [
        {
          "internalType": "bool",
          "name": "",
          "type": "bool"
        }
      ],
      "payable": false,
      "stateMutability": "view",
      "type": "function"
    },
    {
      "constant": false,
      "inputs": [
        {
          "internalType": "uint256",
          "name": "_pagoId",
          "type": "uint256"
        },
        {
          "internalType": "uint256",
          "name": "pago",
          "type": "uint256"
        }
      ],
      "name": "pagar",
      "outputs": [],
      "payable": false,
      "stateMutability": "nonpayable",
      "type": "function"
    }
  ],
  "bytecode": "0x608060405234801561001057600080fd5b5062030d406003819055506100626040518060400160405280600981526020017f41637565647563746f00000000000000000000000000000000000000000000008152506127106101ca60201b60201c565b6100a96040518060400160405280600f81526020017f4d65726361646f2064656c206d65730000000000000000000000000000000000815250614e206101ca60201b60201c565b6100f06040518060400160405280600381526020017f4c757a0000000000000000000000000000000000000000000000000000000000815250613a986101ca60201b60201c565b6101376040518060400160405280601281526020017f5461726a657461206465206372656469746f00000000000000000000000000008152506175306101ca60201b60201c565b61017e6040518060400160405280600781526020017f4e6574666c6978000000000000000000000000000000000000000000000000008152506127106101ca60201b60201c565b6101c56040518060400160405280600781526020017f53706f74696679000000000000000000000000000000000000000000000000008152506127106101ca60201b60201c565b6102eb565b6002600081548092919060010191905055506040518060600160405280600254815260200183815260200182815250600160006002548152602001908152602001600020600082015181600001556020820151816001019080519060200190610234929190610246565b50604082015181600201559050505050565b828054600181600116156101000203166002900490600052602060002090601f016020900481019282601f1061028757805160ff19168380011785556102b5565b828001600101855582156102b5579182015b828111156102b4578251825591602001919060010190610299565b5b5090506102c291906102c6565b5090565b6102e891905b808211156102e45760008160009055506001016102cc565b5090565b90565b6103b7806102fa6000396000f3fe608060405234801561001057600080fd5b50600436106100575760003560e01c8063126e4f3d1461005c578063336127b4146100945780637a53a15314610149578063c3a942e614610167578063f6b91ea914610185575b600080fd5b6100926004803603604081101561007257600080fd5b8101908080359060200190929190803590602001909291905050506101e1565b005b6100c0600480360360208110156100aa57600080fd5b8101908080359060200190929190505050610294565b6040518084815260200180602001838152602001828103825284818151815260200191508051906020019080838360005b8381101561010c5780820151818401526020810190506100f1565b50505050905090810190601f1680156101395780820380516001836020036101000a031916815260200191505b5094505050505060405180910390f35b610151610356565b6040518082815260200191505060405180910390f35b61016f61035c565b6040518082815260200191505060405180910390f35b6101c76004803603602081101561019b57600080fd5b81019080803573ffffffffffffffffffffffffffffffffffffffff169060200190929190505050610362565b604051808215151515815260200191505060405180910390f35b6000803373ffffffffffffffffffffffffffffffffffffffff1673ffffffffffffffffffffffffffffffffffffffff16815260200190815260200160002060009054906101000a900460ff161561023757600080fd5b60008211801561024957506002548211155b61025257600080fd5b80600160008481526020019081526020016000206002015403600160008481526020019081526020016000206002018190555080600354036003819055505050565b6001602052806000526040600020600091509050806000015490806001018054600181600116156101000203166002900480601f0160208091040260200160405190810160405280929190818152602001828054600181600116156101000203166002900480156103465780601f1061031b57610100808354040283529160200191610346565b820191906000526020600020905b81548152906001019060200180831161032957829003601f168201915b5050505050908060020154905083565b60025481565b60035481565b60006020528060005260406000206000915054906101000a900460ff168156fea265627a7a72315820365533e7ba2586321bc7e0c9ef1bff2f6195bc87c756e48aa28028e6d5faefe764736f6c63430005100032",
  "source": "pragma solidity >=0.4.21 <0.7.0;\n\ncontract Pagos {\n    // Modelamos nuestro servicio\n    struct Servicio {\n        uint id;\n        string name;\n        uint saldo;\n    }\n\n    // Guarda a los clientes que han pagado por los servicios\n    mapping(address => bool) public usuarios;\n    // Guarda a los servicios\n    // Añade el servicio\n    mapping(uint => Servicio) public servicios;\n    // Store pagos Count\n    uint public contServicio;\n    uint public disponible;\n\n    constructor () public {\n        disponible = 200000;\n        agregarServicio(\"Acueducto\", 10000);\n        agregarServicio(\"Mercado del mes\", 20000);\n        agregarServicio(\"Luz\", 15000);\n        agregarServicio(\"Tarjeta de credito\", 30000);\n        agregarServicio(\"Netflix\", 10000);\n        agregarServicio(\"Spotify\", 10000);\n    }\n\n    event votedEvent (\n        uint indexed _candidateId\n    );\n\n    function agregarServicio (string memory name, uint saldo) private {\n        contServicio ++;\n        servicios[contServicio] = Servicio(contServicio, name, saldo);\n    }\n\n    function pagar (uint _pagoId, uint pago) public {\n        // require that they haven't voted before\n        require(!usuarios[msg.sender]);\n\n        // Verificamos que el cliente sea valido \n        require(_pagoId > 0 && _pagoId <= contServicio);\n\n        // hacemos el pago del servicio correspondiente\n        servicios[_pagoId].saldo = servicios[_pagoId].saldo - pago;\n\n        //Se resta la cantidad del pago dado a el saldo disponible\n        disponible = disponible - pago;\n\n    }\n}",
  "sourcePath": "/home/nedsanchezca/Documents/Universidad/11 Semestre/ProyectoFinalRedes3/proyecto/contracts/Pagos.sol",
  "compiler": {
    "name": "solc",
    "version": "0.5.16+commit.9c3226ce.Emscripten.clang"
  },
  "schemaVersion": "3.2.3",
  "updatedAt": "2020-08-24T20:31:27.033Z",
  "networkType": "ethereum",
  "devdoc": {
    "methods": {}
  },
  "userdoc": {
    "methods": {}
  }
}